{
	"remix/schoolstudentsage.sol": {
		"SchoolStudentsAge": {
			"abi": [
				{
					"inputs": [],
					"stateMutability": "nonpayable",
					"type": "constructor"
				},
				{
					"inputs": [],
					"name": "age",
					"outputs": [
						{
							"internalType": "int256",
							"name": "",
							"type": "int256"
						}
					],
					"stateMutability": "view",
					"type": "function"
				},
				{
					"inputs": [],
					"name": "getMessage",
					"outputs": [
						{
							"internalType": "int256",
							"name": "",
							"type": "int256"
						}
					],
					"stateMutability": "view",
					"type": "function"
				},
				{
					"inputs": [
						{
							"internalType": "int256",
							"name": "newAge",
							"type": "int256"
						}
					],
					"name": "setMessage",
					"outputs": [],
					"stateMutability": "nonpayable",
					"type": "function"
				}
			],
			"devdoc": {
				"kind": "dev",
				"methods": {},
				"version": 1
			},
			"evm": {
				"assembly": "    /* \"remix/schoolstudentsage.sol\":60:324  contract SchoolStudentsAge {... */\n  mstore(0x40, 0x80)\n    /* \"remix/schoolstudentsage.sol\":117:158  constructor() {... */\n  callvalue\n  dup1\n  iszero\n  tag_1\n  jumpi\n  revert(0x00, 0x00)\ntag_1:\n  pop\n    /* \"remix/schoolstudentsage.sol\":148:150  15 */\n  0x0f\n    /* \"remix/schoolstudentsage.sol\":142:145  age */\n  0x00\n    /* \"remix/schoolstudentsage.sol\":142:150  age = 15 */\n  dup2\n  swap1\n  sstore\n  pop\n    /* \"remix/schoolstudentsage.sol\":60:324  contract SchoolStudentsAge {... */\n  dataSize(sub_0)\n  dup1\n  dataOffset(sub_0)\n  0x00\n  codecopy\n  0x00\n  return\nstop\n\nsub_0: assembly {\n        /* \"remix/schoolstudentsage.sol\":60:324  contract SchoolStudentsAge {... */\n      mstore(0x40, 0x80)\n      callvalue\n      dup1\n      iszero\n      tag_1\n      jumpi\n      revert(0x00, 0x00)\n    tag_1:\n      pop\n      jumpi(tag_2, lt(calldatasize, 0x04))\n      shr(0xe0, calldataload(0x00))\n      dup1\n      0x262a9dff\n      eq\n      tag_3\n      jumpi\n      dup1\n      0xce6d41de\n      eq\n      tag_4\n      jumpi\n      dup1\n      0xfc9c4248\n      eq\n      tag_5\n      jumpi\n    tag_2:\n      revert(0x00, 0x00)\n        /* \"remix/schoolstudentsage.sol\":94:108  int public age */\n    tag_3:\n      tag_6\n      tag_7\n      jump\t// in\n    tag_6:\n      mload(0x40)\n      tag_8\n      swap2\n      swap1\n      tag_9\n      jump\t// in\n    tag_8:\n      mload(0x40)\n      dup1\n      swap2\n      sub\n      swap1\n      return\n        /* \"remix/schoolstudentsage.sol\":244:321  function getMessage() public view returns (int) {... */\n    tag_4:\n      tag_10\n      tag_11\n      jump\t// in\n    tag_10:\n      mload(0x40)\n      tag_12\n      swap2\n      swap1\n      tag_9\n      jump\t// in\n    tag_12:\n      mload(0x40)\n      dup1\n      swap2\n      sub\n      swap1\n      return\n        /* \"remix/schoolstudentsage.sol\":166:236  function setMessage(int newAge) public {... */\n    tag_5:\n      tag_13\n      0x04\n      dup1\n      calldatasize\n      sub\n      dup2\n      add\n      swap1\n      tag_14\n      swap2\n      swap1\n      tag_15\n      jump\t// in\n    tag_14:\n      tag_16\n      jump\t// in\n    tag_13:\n      stop\n        /* \"remix/schoolstudentsage.sol\":94:108  int public age */\n    tag_7:\n      sload(0x00)\n      dup2\n      jump\t// out\n        /* \"remix/schoolstudentsage.sol\":244:321  function getMessage() public view returns (int) {... */\n    tag_11:\n        /* \"remix/schoolstudentsage.sol\":287:290  int */\n      0x00\n        /* \"remix/schoolstudentsage.sol\":310:313  age */\n      sload(0x00)\n        /* \"remix/schoolstudentsage.sol\":303:313  return age */\n      swap1\n      pop\n        /* \"remix/schoolstudentsage.sol\":244:321  function getMessage() public view returns (int) {... */\n      swap1\n      jump\t// out\n        /* \"remix/schoolstudentsage.sol\":166:236  function setMessage(int newAge) public {... */\n    tag_16:\n        /* \"remix/schoolstudentsage.sol\":222:228  newAge */\n      dup1\n        /* \"remix/schoolstudentsage.sol\":216:219  age */\n      0x00\n        /* \"remix/schoolstudentsage.sol\":216:228  age = newAge */\n      dup2\n      swap1\n      sstore\n      pop\n        /* \"remix/schoolstudentsage.sol\":166:236  function setMessage(int newAge) public {... */\n      pop\n      jump\t// out\n        /* \"#utility.yul\":7:83   */\n    tag_19:\n        /* \"#utility.yul\":43:50   */\n      0x00\n        /* \"#utility.yul\":72:77   */\n      dup2\n        /* \"#utility.yul\":61:77   */\n      swap1\n      pop\n        /* \"#utility.yul\":7:83   */\n      swap2\n      swap1\n      pop\n      jump\t// out\n        /* \"#utility.yul\":89:204   */\n    tag_20:\n        /* \"#utility.yul\":174:197   */\n      tag_29\n        /* \"#utility.yul\":191:196   */\n      dup2\n        /* \"#utility.yul\":174:197   */\n      tag_19\n      jump\t// in\n    tag_29:\n        /* \"#utility.yul\":169:172   */\n      dup3\n        /* \"#utility.yul\":162:198   */\n      mstore\n        /* \"#utility.yul\":89:204   */\n      pop\n      pop\n      jump\t// out\n        /* \"#utility.yul\":210:428   */\n    tag_9:\n        /* \"#utility.yul\":301:305   */\n      0x00\n        /* \"#utility.yul\":339:341   */\n      0x20\n        /* \"#utility.yul\":328:337   */\n      dup3\n        /* \"#utility.yul\":324:342   */\n      add\n        /* \"#utility.yul\":316:342   */\n      swap1\n      pop\n        /* \"#utility.yul\":352:421   */\n      tag_31\n        /* \"#utility.yul\":418:419   */\n      0x00\n        /* \"#utility.yul\":407:416   */\n      dup4\n        /* \"#utility.yul\":403:420   */\n      add\n        /* \"#utility.yul\":394:400   */\n      dup5\n        /* \"#utility.yul\":352:421   */\n      tag_20\n      jump\t// in\n    tag_31:\n        /* \"#utility.yul\":210:428   */\n      swap3\n      swap2\n      pop\n      pop\n      jump\t// out\n        /* \"#utility.yul\":515:632   */\n    tag_22:\n        /* \"#utility.yul\":624:625   */\n      0x00\n        /* \"#utility.yul\":621:622   */\n      0x00\n        /* \"#utility.yul\":614:626   */\n      revert\n        /* \"#utility.yul\":761:881   */\n    tag_24:\n        /* \"#utility.yul\":833:856   */\n      tag_36\n        /* \"#utility.yul\":850:855   */\n      dup2\n        /* \"#utility.yul\":833:856   */\n      tag_19\n      jump\t// in\n    tag_36:\n        /* \"#utility.yul\":826:831   */\n      dup2\n        /* \"#utility.yul\":823:857   */\n      eq\n        /* \"#utility.yul\":813:875   */\n      tag_37\n      jumpi\n        /* \"#utility.yul\":871:872   */\n      0x00\n        /* \"#utility.yul\":868:869   */\n      0x00\n        /* \"#utility.yul\":861:873   */\n      revert\n        /* \"#utility.yul\":813:875   */\n    tag_37:\n        /* \"#utility.yul\":761:881   */\n      pop\n      jump\t// out\n        /* \"#utility.yul\":887:1024   */\n    tag_25:\n        /* \"#utility.yul\":932:937   */\n      0x00\n        /* \"#utility.yul\":970:976   */\n      dup2\n        /* \"#utility.yul\":957:977   */\n      calldataload\n        /* \"#utility.yul\":948:977   */\n      swap1\n      pop\n        /* \"#utility.yul\":986:1018   */\n      tag_39\n        /* \"#utility.yul\":1012:1017   */\n      dup2\n        /* \"#utility.yul\":986:1018   */\n      tag_24\n      jump\t// in\n    tag_39:\n        /* \"#utility.yul\":887:1024   */\n      swap3\n      swap2\n      pop\n      pop\n      jump\t// out\n        /* \"#utility.yul\":1030:1357   */\n    tag_15:\n        /* \"#utility.yul\":1088:1094   */\n      0x00\n        /* \"#utility.yul\":1137:1139   */\n      0x20\n        /* \"#utility.yul\":1125:1134   */\n      dup3\n        /* \"#utility.yul\":1116:1123   */\n      dup5\n        /* \"#utility.yul\":1112:1135   */\n      sub\n        /* \"#utility.yul\":1108:1140   */\n      slt\n        /* \"#utility.yul\":1105:1224   */\n      iszero\n      tag_41\n      jumpi\n        /* \"#utility.yul\":1143:1222   */\n      tag_42\n      tag_22\n      jump\t// in\n    tag_42:\n        /* \"#utility.yul\":1105:1224   */\n    tag_41:\n        /* \"#utility.yul\":1263:1264   */\n      0x00\n        /* \"#utility.yul\":1288:1340   */\n      tag_43\n        /* \"#utility.yul\":1332:1339   */\n      dup5\n        /* \"#utility.yul\":1323:1329   */\n      dup3\n        /* \"#utility.yul\":1312:1321   */\n      dup6\n        /* \"#utility.yul\":1308:1330   */\n      add\n        /* \"#utility.yul\":1288:1340   */\n      tag_25\n      jump\t// in\n    tag_43:\n        /* \"#utility.yul\":1278:1340   */\n      swap2\n      pop\n        /* \"#utility.yul\":1234:1350   */\n      pop\n        /* \"#utility.yul\":1030:1357   */\n      swap3\n      swap2\n      pop\n      pop\n      jump\t// out\n\n    auxdata: 0xa2646970667358221220f78c6948906415dcfdd27ea8ab4701bc29c73e5f6c19450cca79f7ea469bf73564736f6c634300081f0033\n}\n",
				"bytecode": {
					"linkReferences": {},
					"object": "6080604052348015600e575f5ffd5b50600f5f81905550610171806100235f395ff3fe608060405234801561000f575f5ffd5b506004361061003f575f3560e01c8063262a9dff14610043578063ce6d41de14610061578063fc9c42481461007f575b5f5ffd5b61004b61009b565b60405161005891906100c9565b60405180910390f35b6100696100a0565b60405161007691906100c9565b60405180910390f35b61009960048036038101906100949190610110565b6100a8565b005b5f5481565b5f5f54905090565b805f8190555050565b5f819050919050565b6100c3816100b1565b82525050565b5f6020820190506100dc5f8301846100ba565b92915050565b5f5ffd5b6100ef816100b1565b81146100f9575f5ffd5b50565b5f8135905061010a816100e6565b92915050565b5f60208284031215610125576101246100e2565b5b5f610132848285016100fc565b9150509291505056fea2646970667358221220f78c6948906415dcfdd27ea8ab4701bc29c73e5f6c19450cca79f7ea469bf73564736f6c634300081f0033",
					"opcodes": "PUSH1 0x80 PUSH1 0x40 MSTORE CALLVALUE DUP1 ISZERO PUSH1 0xE JUMPI PUSH0 PUSH0 REVERT JUMPDEST POP PUSH1 0xF PUSH0 DUP2 SWAP1 SSTORE POP PUSH2 0x171 DUP1 PUSH2 0x23 PUSH0 CODECOPY PUSH0 RETURN INVALID PUSH1 0x80 PUSH1 0x40 MSTORE CALLVALUE DUP1 ISZERO PUSH2 0xF JUMPI PUSH0 PUSH0 REVERT JUMPDEST POP PUSH1 0x4 CALLDATASIZE LT PUSH2 0x3F JUMPI PUSH0 CALLDATALOAD PUSH1 0xE0 SHR DUP1 PUSH4 0x262A9DFF EQ PUSH2 0x43 JUMPI DUP1 PUSH4 0xCE6D41DE EQ PUSH2 0x61 JUMPI DUP1 PUSH4 0xFC9C4248 EQ PUSH2 0x7F JUMPI JUMPDEST PUSH0 PUSH0 REVERT JUMPDEST PUSH2 0x4B PUSH2 0x9B JUMP JUMPDEST PUSH1 0x40 MLOAD PUSH2 0x58 SWAP2 SWAP1 PUSH2 0xC9 JUMP JUMPDEST PUSH1 0x40 MLOAD DUP1 SWAP2 SUB SWAP1 RETURN JUMPDEST PUSH2 0x69 PUSH2 0xA0 JUMP JUMPDEST PUSH1 0x40 MLOAD PUSH2 0x76 SWAP2 SWAP1 PUSH2 0xC9 JUMP JUMPDEST PUSH1 0x40 MLOAD DUP1 SWAP2 SUB SWAP1 RETURN JUMPDEST PUSH2 0x99 PUSH1 0x4 DUP1 CALLDATASIZE SUB DUP2 ADD SWAP1 PUSH2 0x94 SWAP2 SWAP1 PUSH2 0x110 JUMP JUMPDEST PUSH2 0xA8 JUMP JUMPDEST STOP JUMPDEST PUSH0 SLOAD DUP2 JUMP JUMPDEST PUSH0 PUSH0 SLOAD SWAP1 POP SWAP1 JUMP JUMPDEST DUP1 PUSH0 DUP2 SWAP1 SSTORE POP POP JUMP JUMPDEST PUSH0 DUP2 SWAP1 POP SWAP2 SWAP1 POP JUMP JUMPDEST PUSH2 0xC3 DUP2 PUSH2 0xB1 JUMP JUMPDEST DUP3 MSTORE POP POP JUMP JUMPDEST PUSH0 PUSH1 0x20 DUP3 ADD SWAP1 POP PUSH2 0xDC PUSH0 DUP4 ADD DUP5 PUSH2 0xBA JUMP JUMPDEST SWAP3 SWAP2 POP POP JUMP JUMPDEST PUSH0 PUSH0 REVERT JUMPDEST PUSH2 0xEF DUP2 PUSH2 0xB1 JUMP JUMPDEST DUP2 EQ PUSH2 0xF9 JUMPI PUSH0 PUSH0 REVERT JUMPDEST POP JUMP JUMPDEST PUSH0 DUP2 CALLDATALOAD SWAP1 POP PUSH2 0x10A DUP2 PUSH2 0xE6 JUMP JUMPDEST SWAP3 SWAP2 POP POP JUMP JUMPDEST PUSH0 PUSH1 0x20 DUP3 DUP5 SUB SLT ISZERO PUSH2 0x125 JUMPI PUSH2 0x124 PUSH2 0xE2 JUMP JUMPDEST JUMPDEST PUSH0 PUSH2 0x132 DUP5 DUP3 DUP6 ADD PUSH2 0xFC JUMP JUMPDEST SWAP2 POP POP SWAP3 SWAP2 POP POP JUMP INVALID LOG2 PUSH5 0x6970667358 0x22 SLT KECCAK256 0xF7 DUP13 PUSH10 0x48906415DCFDD27EA8AB SELFBALANCE ADD 0xBC 0x29 0xC7 RETURNDATACOPY PUSH0 PUSH13 0x19450CCA79F7EA469BF7356473 PUSH16 0x6C634300081F00330000000000000000 "
				},
				"gasEstimates": {
					"creation": {
						"codeDepositCost": "73800",
						"executionCost": "22234",
						"totalCost": "96034"
					},
					"external": {
						"age()": "2402",
						"getMessage()": "2431",
						"setMessage(int256)": "22536"
					}
				},
				"methodIdentifiers": {
					"age()": "262a9dff",
					"getMessage()": "ce6d41de",
					"setMessage(int256)": "fc9c4248"
				}
			},
			"storageLayout": {
				"storage": [
					{
						"astId": 3,
						"contract": "remix/schoolstudentsage.sol:SchoolStudentsAge",
						"label": "age",
						"offset": 0,
						"slot": "0",
						"type": "t_int256"
					}
				],
				"types": {
					"t_int256": {
						"encoding": "inplace",
						"label": "int256",
						"numberOfBytes": "32"
					}
				}
			},
			"userdoc": {
				"kind": "user",
				"methods": {},
				"version": 1
			}
		}
	}
}